S00D0000676C6F76652E73726563FA
S3150800000000000220F11D0008EF1D0008ED1D000884
S31508000010ED1D0008ED1D0008ED1D0008000000009C
S31508000020000000000000000000000000EF1D0008AE
S31508000030EF1D000800000000EF1D0008EF1D000876
S31508000040ED1D0008ED1D0008ED1D0008ED1D00085A
S31508000050ED1D0008ED1D0008ED1D0008ED1D00084A
S31508000060ED1D0008ED1D0008ED1D0008ED1D00083A
S31508000070ED1D0008ED1D0008ED1D0008ED1D00082A
S31508000080ED1D0008ED1D0008ED1D0008ED1D00081A
S31508000090ED1D0008ED1D0008ED1D0008ED1D00080A
S315080000A0ED1D000839050008ED1D0008ED1D0008C6
S315080000B0ED1D0008ED1D0008ED1D0008ED1D0008EA
S315080000C0ED1D0008ED1D0008ED1D0008ED1D0008DA
S315080000D0ED1D0008ED1D0008ED1D0008ED1D0008CA
S315080000E0ED1D0008ED1D0008ED1D0008ED1D0008BA
S315080000F0ED1D0008ED1D0008ED1D0008ED1D0008AA
S31508000100ED1D0008ED1D0008ED1D0008ED1D000899
S31508000110ED1D0008ED1D0008ED1D0008ED1D000889
S31508000120ED1D0008ED1D0008ED1D0008ED1D000879
S31508000130ED1D0008ED1D0008ED1D0008ED1D000869
S31508000140ED1D0008ED1D0008ED1D00085907000803
S31508000150ED1D0008ED1D0008ED1D0008ED1D000849
S31508000160ED1D0008ED1D0008ED1D0008ED1D000839
S31508000170ED1D0008ED1D0008ED1D0008ED1D000829
S31508000180ED1D000810B5114C1148082101F02EFA92
S315080001902046012100224FF4805300F024FF204618
S315080001A0012100224FF4005300F01DFF20460121D3
S315080001B000224FF4804300F016FF2046012100225A
S315080001C04FF40043BDE8104000F00DBF000C02409C
S315080001D03038024010B5334C33484FF4807101F083
S315080001E005FA2046012101F001FA20462F4C042188
S315080001F001F0FCF9204603210022022300F0F3FE59
S31508000200204603210022042300F0EDFE20460321A8
S3150800021004F500640022082300F0E5FE20460321C9
S315080002200022022300F0DFFE2046032100220423D9
S3150800023000F0D9FE202303210022204600F0D3FE39
S31508000240A4F56844002000F0ADFD204600F02EFD20
S31508000250204600F03AFD20460121002200F03AFD32
S3150800026020460221002200F035FD20460321002207
S3150800027000F030FD20460B21002200F02BFD204621
S315080002800C21002200F026FD20460F21002200F056
S3150800029021FD002000F090FD2046BDE8104000F04A
S315080002A07BBD00BF3038024044380240000002409F
S315080002B01FB504AA044602F8101D01216A4600F07B
S315080002C025FD204600F0F7FC0B484FF4004100F0EE
S315080002D086FE204600F05AFD0028FAD0204600F097
S315080002E059FD07EE900AB8EE670ADFED047A20EEAC
S315080002F0270A04B010BD00BF000C0240F2D23D3AF6
S3150800030010B57E487E4C012101F070F97D48102118
S3150800031001F06CF920464FF428530221002200F020
S3150800032062FE204601214FF4285200F07EFE4FF46B
S31508000330A85320460221002200F055FE204601213E
S31508000340A4F588344FF4A85200F06FFE204600F05A
S3150800035095FE00210B462022204600F0FEFE204690
S315080003601E2100F023FF0021204600F021FF204631
S3150800037000F0FCFE204600F0FEFE4DF2B1312046AC
S3150800038000F020FF204601F00BF9204601F0FCF8AA
S31508000390204601F0EDF8204601F0DEF8204601F08F
S315080003A0CFF82046002101F007F92046002101F088
S315080003B04DF82046012101F049F82046022101F0B6
S315080003C045F82046032101F041F82046042101F0B2
S315080003D03DF82046052101F039F82046002100F0B5
S315080003E0B6FF06222046002100F0EEFE2046002138
S315080003F000F0C8FF2046002101F05AF820460121E6
S3150800040000F0C0FF2046012101F052F8204646F6CA
S31508000410D812002101F078F82046022100F097FF53
S3150800042006222046022100F0CFFE2046022100F0D7
S31508000430A9FF2046022101F03BF82046032100F0DF
S31508000440A1FF2046032101F033F8204646F6D812CC
S31508000450022101F059F82046042100F078FF06220F
S315080004602046042100F0B0FE2046042100F08AFF51
S315080004702046042101F01CF82046052100F082FFE1
S315080004802046052101F014F846F6D8122046042124
S3150800049001F03AF82046002100F0A6FF2046012187
S315080004A000F0A2FF2046022100F09EFF204603210D
S315080004B000F09AFF2046042100F096FF0521204609
S315080004C000F092FF204600F051FE204600F062FE42
S315080004D0204601F029F80121204601F079F8204646
S315080004E000F053FE204600F04BFE2046012100F0A6
S315080004F02BFE1920BDE8104001F0C2BC443802406A
S31508000500001002403038024008B5094800F01AFDCC
S31508000510FFF738FEFFF75EFE00F0F0F8FFF7F0FE93
S31508000520042004494FF48042BDE8084000F026B98B
S31508000530CC7C0008000C024010B5124C1248012170
S3150800054000F006FE23680133B3F5FA6F236017DB64
S315080005500E4B0F4893ED007AF7EE007A77EE277A7E
S315080005600121C3ED007AFFF7A3FE10EE100A06F08C
S315080005702BFD02460B46074802F0E8FA00232360E3
S3150800058010BD00BFCC08002000000140000000207C
S3150800059000200140A07B000810B504462DED068B0F
S315080005A04848F0EE408AB0EE60AAF0EE419A44BBA5
S315080005B00622214600F008FE4248214600F014FFB4
S315080005C04048012100F010FF06223E48022100F0B3
S315080005D0FBFD3C48022100F007FF3A48032100F0E2
S315080005E003FF06223748042100F0EEFD35480421B2
S315080005F000F0FAFE3348052100F0F6FEB7EE008A51
S315080006002DE00622002100F0DFFD2E489FED2E8A00
S31508000610002100F01BFF2B48012100F017FF0622DE
S315080006202848022100F0D0FD2648022100F00EFFDE
S315080006302448032100F00AFF06222248042100F07C
S31508000640C3FD2048042100F001FF1E48052100F0E3
S31508000650FDFEF0EE489AB0EE48AAF0EE488A68EE3B
S31508000660887A9FED1A9ADFED1A8A164867EE897A14
S315080006700021C7EEA87AFCEEE77A17EE902A00F07A
S3150800068043FF2AEE08AA0F482AEE09AA02218AEE93
S3150800069028AABCEECAAA1AEE102A00F035FF29EEDF
S315080006A0888A084828EE099A0421C9EE288AFCEEA9
S315080006B0E88A18EE902ABDEC068BBDE8104000F0DB
S315080006C023BF00BF0000014000000000A037204DF6
S315080006D000C0414508B5FFF717FF064B9FED060A10
S315080006E093ED001AF6EE000A21EE201A0020FFF715
S315080006F053FFF2E700000020CDCC4C3E08B5134866
S31508000700012100F073FF1248802100F06FFF4FF4BB
S31508000710D05310480221002200F065FC0D480A213A
S315080007204FF4D05200F081FC00F0E4F94320202178
S3150800073001F0B4FB432001F0A3FB00F081F9012886
S3150800074003D0012000F00EF8F7E708BD3038024064
S315080007503438024000000240014B186800F078BFA8
S315080007601C8900200022824205DA034B00BF013BA8
S31508000770FCD10132F7E77047A08601002DE9F04168
S315080007800A2306460D4617460F4C00BF013CFCD10E
S31508000790013BF9D11C46B44213DA1FFA87F82846FA
S315080007A0414600F017FC094B00BF013BFCD1284627
S315080007B0414600F011FC054B00BF013BFCD101345A
S315080007C0E9E7BDE8F08100BF40420F0000127A0059
S315080007D00023C25C0133002AFBD11846704710B5C6
S315080007E00446FFF7F5FF0022831E9A4206DAA15C4B
S315080007F0E05CA054E1540132013BF6E710BD70B548
S31508000800002280EAE074A4EBE0740A2694FBF6F56D
S3150800081006FB154430348C54531C2C460DB11A462D
S31508000820F3E700281C4602DA931C2D220A550022FB
S31508000830CA540846BDE87040FFF7D1BF08B5034B58
S3150800084053F82030DB68984708BD00BF0400002035
S3150800085008B5034B53F820301B69984708BD00BFFD
S31508000860040000202DE9F04105460F469046002475
S31508000870084B53F824602946306802F019FA08B183
S315080008800134F5E7736828463946424698472046B4
S31508000890BDE8F0810400002008B5034B53F820306A
S315080008A09B68984708BD00BF0400002030B5204B60
S315080008B01C68022C85B0054616D10C2220461D4917
S315080008C002F034FB69462846FFF799FF6846FFF7AA
S315080008D07FFF69460246204602F028FB2046164955
S315080008E0082202F023FB01E001341C60134A144B72
S315080008F0116801B9136010680544EB1AB3F5004F87
S3150800090012DD0A200F494FF48042FFF737FF0A200D
S315080009100C494FF40052FFF731FF0B490F22022012
S3150800092002F004FB01F0D4FC044B1D6005B030BD99
S31508000930D4880020A87B0008B57B0008D88800204A
S31508000940D4080020000C0240BE7B00084FF4005378
S315080009504B60002070474FF400534B6000207047EF
S31508000960002070474878202804D0B0F12203584266
S31508000970584170471888062894BF00200120704700
S31508000980014B01221A6070472000002070470000C2
S3150800099030B51D4B87B019601C4B0093012102220C
S315080009A04023044600F05AFE194B009300252046C2
S315080009B082210222402300F051FE20460095832121
S315080009C00322102300F04AFE204621217F22114BE4
S315080009D001F011F9A1238DF80C3020238DF80D3084
S315080009E00223ADF8123003238DF8143020468321F4
S315080009F003AA0A23ADF80E50ADF810508DF815501D
S31508000A0000F04BFE07B030BD088A0020190A00081E
S31508000A10810900086509000808B5074A012140232D
S31508000A2000F041FE024628B104480349BDE80840E3
S31508000A3000F00EB908BD00BFB0890020F08900207B
S31508000A40014B1868704700BF088A002000207047CD
S31508000A500020704738B505460C46054B82211868B4
S31508000A602A46A3B200F019FE0028F6D038BD00BF0A
S31508000A701C8900202DE9F041884617460025BD420D
S31508000A801EDA114C114E216818F8053073540131DD
S31508000A9001292160304603D1FFF7DCFF00232360DC
S31508000AA018F805300A2B09D1216808480D23735414
S31508000AB001312160FFF7CEFF002323600135DEE711
S31508000AC03846BDE8F08100BFAC890020DC880020EC
S31508000AD038B50D461446064800F080F8A042FADB01
S31508000AE0294622460248BDE8384000F087B800BFCC
S31508000AF0F08900201FB523484FF4807100F05AF89A
S31508000B0030B1052020494FF48042FFF737FEF8E759
S31508000B101E4B1A685C68083314441B681C446FF043
S31508000B20030141431A4A24FA01F1131801F00F018F
S31508000B300138303110F1080FD971F0D10023D15C9A
S31508000B40392902D91248073119540133082BF6D12D
S31508000B5000231372032300930E4B01938023029301
S31508000B600D4A0E4B0E490F480F4C00F04DFD0F492C
S31508000B70206000F04CFF20680D4904B0BDE8104025
S31508000B8000F064BDF0890020000C0240107AFF1FB7
S31508000B90A089002020890020627C0008140000201B
S31508000BA03B7C00083C7D00081C8900209109000850
S31508000BB08D09000870B50025044645608560C56046
S31508000BC00561456108460E4601F034FC206010B107
S31508000BD06660284670BD4FF0FF3070BDC2688368F6
S31508000BE09A42BCBF40681218D01A704710B504461E
S31508000BF0FFF7F4FF6368181A10BD0000F8B504463D
S31508000C000E4612484FF40041174600F0E8F972B64E
S31508000C106069B8B901236361B84203DAA368E56875
S31508000C20AB4202D1002363610DE02568EB5C3354C7
S31508000C30A36865680133AB42A36004BF0023A360C1
S31508000C400130E9E7002062B6F8BD00BF000C02409B
S31508000C50F8B504460F4614484FF40051154600F0FF
S31508000C60BEF972B62669E6B9012323612046FFF765
S31508000C70BDFFA842304611DDA8420DDAE3682268B6
S31508000C80395CD154E368626801339342E36004BF78
S31508000C900023E3600130EFE725EAE57000232361CE
S31508000CA000E0002062B6F8BD000C0240436823F459
S31508000CB0807343607047836843F0804300F10802FD
S31508000CC0836013685B00FCD47047836823F00203D3
S31508000CD083607047092910B50BD8046901EB4101F7
S31508000CE007238B4024EA030302FA01F11943016141
S31508000CF010BD0A3901EB4101C46807238B4024EA79
S31508000D0003038A4043EA0201C16010BD10292DE998
S31508000D10F04339D800236FF03B041D461E461F4694
S31508000D205FFA83FC0CF101085FFA88F8884525D834
S31508000D30B8F1060F07D812F8039003EB830809FAEF
S31508000D4008F845EA0805ACF10608B8F1050F07D812
S31508000D5012F8039004F11E0809FA08F846EA08068C
S31508000D60ACF10C0CBCF1030F05D812F803C00CFA51
S31508000D7004FC47EA0C0701330534D1E7013947EA91
S31508000D800157C76206634563BDE8F0830068C0F390
S31508000D9040007047C06C7047836843F00103836066
S31508000DA070470000034B1A6822F44032104318605B
S31508000DB0704700BF04230140024B1A6810431860AD
S31508000DC0704700BF0423014004281CD8DFE800F060
S31508000DD003080D1217000C4B1B689B01FBD57047C7
S31508000DE0094B1B689803FBD57047074B1B68990787
S31508000DF0FBD57047054B1B689A07FBD57047044B14
S31508000E001B689B07FBD570470038024070380240C4
S31508000E107438024001280AD002D302280ED070473F
S31508000E20094B1B6803F00303022BF9D17047064BE5
S31508000E301B6803F00303012BF9D17047024B1B68AB
S31508000E409B07FBD1704700BF08380240042817D813
S31508000E50DFE800F003080D0F11000A4B1A6842F08C
S31508000E6080720CE0074B1A6842F4803207E0054BA3
S31508000E7002E0054B00E0054B1A6842F001021A60D1
S31508000E80704700BF0038024070380240743802408C
S31508000E90042817D8DFE800F003080D0F11000A4BE5
S31508000EA01A6822F080720CE0074B1A6822F4803226
S31508000EB007E0054B02E0054B00E0054B1A6822F0F7
S31508000EC001021A60704700BF0038024070380240BD
S31508000ED074380240034B1A6822F003021043186064
S31508000EE0704700BF08380240034B1A6822F4604274
S31508000EF042EA40301860704708380240034B1A68C7
S31508000F0022F4E05242EA802018607047083802400E
S31508000F10034B1A6822F0F00242EA00101860704784
S31508000F200838024040EA036343F48003520843EA60
S31508000F308111531E024A41EA03411160704700BFFE
S31508000F400438024010B504460220FFF77FFF02204E
S31508000F50FFF73AFF0020FFF7BDFF0120FFF776FFF6
S31508000F600120FFF731FFE07B00B1012000F0A6FF6A
S31508000F70207BFFF7CDFF607BFFF7C0FFA07BFFF765
S31508000F80B3FF2279637920786188FFF7CBFF0E4B90
S31508000F901A6842F080721A601A689201FCD5A06835
S31508000FA000F01AFB0220FFF795FF0020FFF732FF3B
S31508000FB0064A23691360064B62691A600220BDE877
S31508000FC01040FFF765BF00BF00380240240000202C
S31508000FD028000020816170470904816170474369D0
S31508000FE05940416170472DE9F0410668C5680024FB
S31508000FF043FA04F7FF0711D567004FF0030C0CFA04
S3150800100007FC6FEA0C0C01FA07F80CEA06060CEA6C
S31508001010050502FA07F746EA08063D430134102C8F
S31508001020E6D10660C560BDE8F081F0B5056A446A98
S31508001030002342FA03F6F70707D59E000F27B740A5
S3150800104025EA070501FA06F635430133082BF0D1E0
S31508001050002303F1080642FA06F6F60707D59E00AE
S315080010600F27B74024EA070401FA06F6344301338A
S31508001070082BEED105624462F0BD000008B52D4B81
S31508001080984236D010D8A3F50063984224D003F5C9
S315080010908063984226D0B0F1804F49D12648012175
S315080010A000F0A8FA244815E0244B98422FD004D81B
S315080010B0A3F58063984223D008BD214B984204D0FB
S315080010C003F58063984229D008BD1E48012100F027
S315080010D091FA1C48012127E01748022100F08AFAF4
S315080010E0154820E01448042100F084FA1248042127
S315080010F01AE01148082100F07DFA0F48082113E08C
S315080011000D48102100F076FA0B4810210CE00A4829
S31508001110202100F06FFA0848202105E0094802213D
S3150800112000F068FA07480221BDE8084000F066BAF0
S3150800113008BD00BF000C00402038024000140040E3
S315080011400000014024380240C3681943C160704753
S31508001150036923EA01010161704710B50468134366
S3150800116024F45C7419430C43046010BD036843F00F
S31508001170800303607047036823F008030360704721
S31508001180036823F0020303607047036843F0010312
S3150800119003607047044B20F480629A4203D1436887
S315080011A023F00103436070470000014081627047E5
S315080011B0034B20F480629A4208BF0163704700BF60
S315080011C000000140C1627047062900F2BF80DFE8CF
S315080011D011F00700BD003200BD005E00BD008C00A6
S315080011E0836923F00303836183698361836923F039
S315080011F070038361072A00F2A980DFE802F02E5AFD
S3150800120004080C101418836943F0200384E08369EA
S3150800121043F0300380E0836943F040037CE0836950
S3150800122043F0500378E0836943F0600374E0836910
S3150800123043F0700370E0836923F440738361836924
S315080012408361836923F4E0438361072A7ED8DFE854
S3150800125002F00460060A0E12161A83695CE08369B6
S3150800126043F4005358E0836943F4405354E08369D8
S3150800127043F4804350E0836943F4A0434CE0836918
S3150800128043F4C04348E0836943F4E04344E0836998
S3150800129023F00303836183698361C36923F07003C1
S315080012A0C361072A52D8DFE802F03204080C10148A
S315080012B0181C836943F010032EE0C36943F020032A
S315080012C043E0C36943F030033FE0C36943F040039A
S315080012D03BE0C36943F0500337E0C36943F060035A
S315080012E033E0C36943F070032FE0836923F4407346
S315080012F0836183698361C36923F4E043C361072A71
S3150800130024D8DFE802F004060B0F13171B1FC36966
S315080013101BE0836943F4805383617047C36943F4D0
S31508001320005312E0C36943F440530EE0C36943F423
S3150800133080430AE0C36943F4A04306E0C36943F463
S31508001340C04302E0C36943F4E043C361704706291A
S3150800135016D8DFE801F0041508150D151100836984
S3150800136043F0080302E0836943F40063836170472E
S31508001370C36943F0080302E0C36943F40063C36129
S3150800138070470000062915D8DFE801F00414081490
S315080013900C141000036A23F002030AE0036A23F020
S315080013A0200306E0036A23F4007302E0036A23F4C9
S315080013B0005303620B4B20F480629A4211D1032931
S315080013C007D0052909D001290BD1036A23F00803A0
S315080013D006E0036A23F0800302E0036A23F400634D
S315080013E00362704700000140062915D8DFE801F0BE
S315080013F0041408140C141000036A43F001030AE0ED
S31508001400036A43F0100306E0036A43F4807302E0BC
S31508001410036A43F4805303620B4B20F480629A42BA
S3150800142011D1032907D0052909D001290BD1036A4F
S3150800143043F0040306E0036A43F0400302E0036A4C
S3150800144043F480630362704700000140062915D8FB
S31508001450DFE801F0041408140C141000036A23F0E2
S3150800146001030AE0036A23F0100306E0036A23F483
S31508001470807302E0036A23F4805303620B4B20F463
S3150800148080629A4211D1032907D0052909D001297A
S315080014900BD1036A23F0040306E0036A23F0400332
S315080014A002E0036A23F48063036270470000014088
S315080014B0144B20F480629A4223D1062921D8DFE80A
S315080014C001F004080C1014181C00436823F48073F8
S315080014D016E0436823F4007312E0436823F480633C
S315080014E00EE0436823F400630AE0436823F480535C
S315080014F006E0436823F4005302E0436823F480437C
S31508001500436070470000014006290CD8DFE801F067
S31508001510040B060B080B0A00426370478263704788
S31508001520C263704702647047044B20F480629A4293
S3150800153003D1436C43F40043436470470000014001
S31508001540044B20F480629A4203D1436C23F480430F
S315080015504364704700000140044B20F480629A42BD
S3150800156003D1436C43F400534364704700000140C1
S31508001570044B20F480629A4203D1436C23F48053CF
S315080015804364704700000140044B20F480629A428D
S3150800159003D1436C43F40063436470470000014081
S315080015A0044B20F480629A4203D1436C43F480636F
S315080015B04364704700000140044B20F480629A425D
S315080015C002D1436C19434164704700BF00000140D3
S315080015D04369194341617047034B1A6822F00702B1
S315080015E010431860704700BF003C02400368194367
S315080015F0016070470368194301607047036823EA6E
S3150800160001010160704700002DE9F04105460068B8
S3150800161098460E4617468047069BC360079B03619C
S31508001620BDF820308382064BC366064B8366064B9D
S31508001630C0F8C85080E8C0014366BDE8F08100BF25
S315080016401D1C0008771C0008FD1C0008C1617047B6
S3150800165008B5D0F8C8305B6A984708BD37B5069C08
S31508001660D0F8C8500094AC68A04703B030BD37B571
S31508001670002405468475C4752146224640230094F5
S31508001680FFF7ECFFD5F8C83028465B68214698472F
S31508001690EB6903B1984703B030BD10B5D0F8C84020
S315080016A0E469A04710BD10B5D0F8C840246AA04721
S315080016B010BD08B5D0F8C8301B69984708BD08B5ED
S315080016C0D0F8C8309B69984708BD38B54B88C27DA5
S315080016D09A4204460D460FD0C375D0F8C830DB6869
S315080016E09847D4F8C4203AB100236364E364636579
S315080016F0E365204669889047012038BD1988012985
S3150800170084BF012119801368C27D1A7001207047B1
S315080017104A8812B91A8001207047002070470120B4
S315080017201880136800221A7070471988022984BF26
S3150800173002211980116800230B701268012053706A
S3150800174070471988022984BF02211980116800236D
S315080017500B70126801205370704738B514461A8802
S315080017602568022A84BF02221A808988C9B2FFF72F
S31508001770A6FF003018BF01202870236800225A707F
S31508001780012038BD08B589880122C9B2FFF791FF43
S31508001790012008BD08B589880022C9B2FFF789FF6C
S315080017A0012008BD10B50A7872B94C887F2C0BD871
S315080017B0D0F8C830847593F830201AB149885B6828
S315080017C0C9B29847012010BD002010BD2DE9F04F81
S315080017D0044648881D46C3B2000A022887B0174641
S315080017E00FD0032800F0D480012840F00C8123682C
S315080017F0136023682A881B789A4238BF13462B80C1
S3150800180002E1206910600D27D4F804802E88019023
S315080018105F4308EB070318F807400293A64238BF50
S3150800182034461946224601F0A9F8019B18F80770B4
S31508001830361B2344B6B24FF00008CDF81080029844
S31508001840DDF8108001791FFA88F2914240F29C80F7
S315080018500C214A4302980392DDF80C80D0F809203F
S315080018604244D2F80480B8F1000F14D098F80090DA
S315080018704E4538BFB14618464A46414601F07EF8FD
S3150800188098F800200346C9EB06064C4417444B4417
S31508001890B6B2A4B2BFB24FF0000C029A0398D2F8BF
S315080018A00910DDF80C80084451F808101FFA8CF26C
S315080018B08A4264DA4FF0150AD0F808B00AFB02FA31
S315080018C00BEB0A081BF80A90CDF800C04E4538BF46
S315080018D0B1464A461846414601F050F803464B447D
S315080018E0C9EB0606A144D8F81140D8F80D101BF824
S315080018F00AA0B6B2A642B8BF3446A4B222461846D3
S3150800190001F03CF8D8F811201FFA89F992440346E9
S31508001910361B17FA8AF723444C44B6B2A4B2BFB2B0
S315080019204FF0000A98F80420DDF800C00AF101001B
S315080019301FFA8AFA524505901ED9D8F809B0CAEB9B
S31508001940CA0A18461BF80A90CDF800C04E4538BF9B
S31508001950B1460BEB0A014A4601F010F81BF80A20BB
S31508001960DDF814A00346C9EB06064C4417444B445D
S31508001970B6B2A4B2BFB2D5E70CF1010C8DE7DDF81B
S31508001980108008F1010858E7019B5F802C8038E039
S31508001990266953B90923B3700423F37033702B886F
S315080019A0042B28BF04232B8028E0A068013B58B3EA
S315080019B0E268934227DA898840F20942914222D1A5
S315080019C050F823004FEA830801F080FA01304300FB
S315080019D0DBB233702A88934228BF13462B80002334
S315080019E02A885208013A934208DAA26852F808206F
S315080019F0D15C06EB430201335180F1E70323737090
S31508001A003E60012000E0002007B0BDE8F08FC0F876
S31508001A10C410704738B54C78092C05D8044D55F8CC
S31508001A2024401CB1A04738BD002038BD204638BD2B
S31508001A30E47C000838B54C780B2C05D8044D55F8CD
S31508001A4024401CB1A04738BD002038BD204638BD0B
S31508001A500C7D000810B54C78012C03D009D3032C53
S31508001A6003D004E04C8834B101E04C882CB1002046
S31508001A7010BD034C02E0034C00E0034CA04710BD28
S31508001A805B170008951700088517000810B50C782D
S31508001A9014F0600F12D104F01F04012C0AD005D3EC
S31508001AA0022C0BD1BDE81040FFF7D4BFBDE81040AB
S31508001AB0FFF7B0BFBDE81040FFF7BCBF002010BD60
S31508001AC010B5002104460122FFF7F3FD002384F830
S31508001AD02C3010BD38B50268838FC58ED279ED1AC1
S31508001AE09542A8BF1546826BADB21A4400212B4613
S31508001AF00446FFF7D8FDA84205D02046FFF7E0FFC9
S31508001B004FF0FF3038BDA38F0344A38738BD38B5DF
S31508001B100368826BDD79838F9D4204464FF000018E
S31508001B200FD22B46FFF7B9FD022384F82C30236821
S31508001B30A26BD9790A44A263DB79A28FD31AA38749
S31508001B4038BDFFF7AAFD032384F82C300023A387AA
S31508001B50A36338BD2DE9F34104460E4600F1440857
S31508001B60002558F8057057B92046314604F1380261
S31508001B7004F13C0302B0BDE8F041FFF787BF08EB6C
S31508001B800503317858791A7900EA01039A4203D095
S31508001B900835202DE5D1E7E704F1400300932046F8
S31508001BA0314604F1380204F13C03B8470128EFD85E
S31508001BB002B0BDE8F08110B5026982638A79CB79F3
S31508001BC042EA032383870446FFF7C4FF70B1A18F57
S31508001BD0204619B1BDE81040FFF799BF0B460A46E3
S31508001BE0FFF75BFD042384F82C3010BD2046BDE8C2
S31508001BF01040FFF765BF70B5002500EBC504666C9D
S31508001C002EB10135042DF8D14FF0FF3070BD84F8A0
S31508001C10481084F849206364304670BD70B500F1F9
S31508001C203006002505642946324608230446FFF790
S31508001C303AFD082804D02046BDE87040FFF740BFAB
S31508001C40E38E1BB194F93020002A05DA2046314686
S31508001C50BDE87040FFF7AFBFA28A9A42EBD322696C
S31508001C60A2632268A587D2799A4234BF0523062340
S31508001C7084F82C3070BD90F82C30062B10B504462D
S31508001C8010D0072B24D0052B33D1FFF723FF0028CC
S31508001C9033DBA38FE28ED21A2368DB799A422CDCD7
S31508001CA0062310E0FFF716FF002826DB204604F17E
S31508001CB03001FFF74FFF48B100210B4620460A4680
S31508001CC0FFF7EBFC042384F82C3010BD204610E007
S31508001CD000210B460A46FFF7E6FC002384F82C3061
S31508001CE0236C1BB1204604F1300198470023236476
S31508001CF010BDBDE81040FFF7E3BE10BD90F82C30CC
S31508001D00032B10B5044607D0042B07D0022B1CD191
S31508001D10BDE81040FFF7FBBE072313E0036C13B1C1
S31508001D2000F13001984794F8303053B994F83130BF
S31508001D30052B06D1D4F8C830618E5B682046C9B237
S31508001D409847002384F82C3010BDBDE81040FFF7F3
S31508001D50B7BE00001D4B02221A6053F8082C42F049
S31508001D60800243F8082C5A6A42F410225A62184B29
S31508001D701A68002AFBDA1A6842F001021A601A6821
S31508001D8012F00101FBD1134A1348136843F080434C
S31508001D9043F470531360114B1A6842F003021A6039
S31508001DA00F4AC3F8001680231360A0F8CC300D4BF9
S31508001DB01A6842F001021A600B4A1A610F22C3F828
S31508001DC014280122C3F80828704700BF14000050E1
S31508001DD0100000500C0000500C8A0020000800502B
S31508001DE0240000500800005018280480FEE77047B9
S31508001DF00022184918485318834204D2174BD3585F
S31508001E0053500432F5E7164A934203D200221A6069
S31508001E100433F8E7134C144B9C4203D254F8043BA2
S31508001E209847F8E7114C124B9C4203D254F8043BEE
S31508001E309847F8E70F4B104C1A6842F470021A607C
S31508001E40FEF748FC0D4B9C4203D254F8043B9847D6
S31508001E50F8E700BF00000020CC080020FC7E000840
S31508001E602C8B0020F47E0008F47E0008F47E00081F
S31508001E70F47E000888ED00E0F47E0008F47E000891
S31508001E80054B420903EB820300F01F00012202FA08
S31508001E9000F01860704700BF00E100E0502804D940
S31508001EA000F00F00044BC154704700F1604000F584
S31508001EB064400170704700BF14ED00E020B9064B7E
S31508001EC01A6842F4804205E0012804D1024B1A68D8
S31508001ED002F480421A60704700700040D0F8C8309B
S31508001EE0DB6AD3F8002822F4FE6242EA0111C3F83D
S31508001EF0001870472DE9F04711F07F05089ED0F8C5
S31508001F00C84003F07F073AD13F2BE26A02D9C2F8EC
S31508001F10005909E01F2B01D9012103E00F2B8CBFC3
S31508001F2002210321C2F80019E16ABAB2C1F81029E0
S31508001F30E16AD1F8005945F00845C1F80059E16A47
S31508001F4042F0005242F40022C0F8D420C1F8102B07
S31508001F50E26AD2F8001B41F00841C2F8001B618E04
S31508001F60E26A9B0841EA03419162B0F8CC20134427
S31508001F709BB2A0F8CC30A0F8CE30BDE8F08711F0BF
S31508001F80800F4FEA824A2CD0B0F8CCC0E16A4FEAFB
S31508001F90930805F140094CEA084241F82920E16A0C
S31508001FA0C444A0F8CCC001F511614FF0200C1CFB0D
S31508001FB00511BFB20F604FF410671CFB0577E16A85
S31508001FC04AF0184242F400427C58134343EA8553C8
S31508001FD023437B503EB30C2303FB05004666BDE84E
S31508001FE0F087E26A00EB850147F40027C1F8D47050
S31508001FF002F5316C202111FB05CC4AF01442CCF8CD
S3150800200000704FF4306711FB0577E16A42F400422D
S315080020107C58134323437B502EB10C2303FB050046
S315080020208666BDE8F087BDE8F087B0F8CE30A0F840
S31508002030CC30704710B5D0F8C83051B9D86AD0F846
S31508002040004912B144F4001401E024F40014C0F865
S315080020500049080646BF01F07F0148315831490159
S3150800206022B1DB6ACA5842F4001208E0DA6A8858D4
S3150800207020F400108850DB6ACA5842F08052CA50D1
S3150800208010BD11F0800FD0F8C8301ABF01F07F01DB
S31508002090483158314901DB6AC858C0F34050704787
S315080020A00B0610D44318583183F8D020D0F8C8301E
S315080020B04901DB6A1AB1CA5842F0006202E0CA58FE
S315080020C042F08062CA50704770B5D0F8C840E06ADE
S315080020D001F07F01202500F5116015FB0100066857
S315080020E036031BD443F4002606604FF4106015FB34
S315080020F00105E06A2E5846F004462E50E06A013182
S3150800210000EB01300146C418641A002C04DD141AC9
S31508002110645841F8044BF6E7184670BD002070BDB8
S31508002120F7B50D461146B0F8E420934234BF1E4673
S315080021301646D0F8C830DB6A921B6F1CA0F8E4205C
S31508002140044603EB0737324608467B1A032A03443C
S3150800215004DD1B6840F8043B043AF6E72AB102A9F5
S315080021601B6841F8043D00F009FCD4F8C830D96A68
S3150800217004EB8500202201F5316112FB0511D0F828
S31508002180D40008602C444FF4306194F8D000DB6A20
S3150800219012FB05120028D1580CBF4FF004404FF02F
S315080021A0084001433046D15003B0F0BDD0F8C820EE
S315080021B0F8B5D36A5E69B504044609D54FF40051EB
S315080021C05961538EA0F8CC30BDE8F840FFF74FBAF6
S315080021D0F00631D51B6A03F4B012B2F5802F67D129
S315080021E003F4F01203F00F05B2F5402FC3F30A13F8
S315080021F0A4F8E43014BF012202224FF47A7300BF18
S31508002200013BFCD105EB4503134404EB83035B6EEA
S3150800221013B12046294698470135B4F8E4102D0332
S3150800222000238B4205DAD4F8C820D26A0433AA58A8
S31508002230F7E70023A4F8E4300025D4F8C830DB6AB1
S315080022406F0103F60813DB59D9070ED50C2303FBD8
S3150800225005435B6E13B12046E9B29847D4F8C830F7
S31508002260DB6A03F608130122DA510135042DE4D19D
S31508002270320508D5236A03B19847D4F8C830DB6A13
S315080022804FF400625A61002E08DA636A03B1984770
S31508002290D4F8C830DB6A4FF000425A61330707D5D5
S315080022A0A36A03B19847D4F8C830DB6A08225A6192
S315080022B0F8BDD0F8C830DB6AD3F8042811B142F06B
S315080022C0020201E022F00202C3F804287047000067
S315080022D008B5062000F08CFC012004F00FFD00BFB5
S315080022E0014900F081B800BF195600082DE9F04FE2
S315080022F0846B83B00746002C65D145683348F8637C
S315080023000423032107F53B72C7F8E412C7F8E8224D
S31508002310C7F8E04205F15C00AB812C606C60AC60EC
S315080023206C66EC812C616C61AC612146082200F078
S31508002330BFFBBE68DFF898B0DFF898A0DFF8989082
S31508002340DFF89880ED6101230922C5F820B0C5F8A9
S3150800235024A0C5F82890C5F82C802146F381B281BF
S3150800236034607460B460746634617461B461082260
S3150800237006F15C00019300F09BFBFD68F6611220F4
S315080023800222C6F820B0C6F824A0C6F82890C6F8D7
S315080023902C802146A881EA812C606C60AC606C6652
S315080023A02C616C61AC6105F15C00082200F080FBD1
S315080023B0019BED61C5F820B0C5F824A0C5F82890A2
S315080023C0C5F82C80BB6303B0BDE8F08FE122000896
S315080023D02D2C0008512C0008892C0008A92C00086F
S315080023E0704700BF704700BF2DE9F04110F53877F8
S315080023F088461AD000267D68BC68013D0FD4A3899B
S31508002400012B05F1FF3506D9B4F90E300133204604
S3150800241001D0C04706436B1C04F16804EFD13F683E
S31508002420002FE8D13046BDE8F0813E463046BDE88B
S31508002430F08100BF024B0146186800F003B800BFE0
S31508002440580400202DE9F04F01F10B05162D83B035
S31508002450064627D935F0070527D4A94225D8304698
S3150800246000F070FBB5F5FC7F26D2C14F4FEAD50CBC
S3150800247007EBCC03DC689C4200F0D2816368E26813
S31508002480A16823F00303234430465D68CA6045F01B
S31508002490010591605D6000F057FB0834204603B0E3
S315080024A0BDE8F08F1025A942D9D900240C2320466F
S315080024B0336003B0BDE8F08F5FEA552C00F08A80E0
S315080024C0BCF1040F00F260814FEA951C0CF1380C40
S315080024D04FEA4C01A64F07EB8101CC68A14205D112
S315080024E00CE0002B7ADAE468A14207D0626822F091
S315080024F00302531B0F2BF4DD0CF1FF3C0CF1010C0E
S315080025009B4B3C6903F1080E744500F07E816168B7
S3150800251021F003014A1B0F2A00F36481002AC3F83D
S3150800252014E0C3F810E06ADAB1F5007F80F03A816A
S31508002530C90803EBC1004FEAA1085A688168A1607F
S315080025404FF0010909FA08F848EA0202E0605A6001
S315080025508460CC604FEAAC030120984090425BD877
S31508002560024206D12CF0030C400002420CF1040C86
S31508002570FAD007EBCC084446E146E3689C4207D10B
S3150800258045E1002A80F25681DB689C4200F03F81D3
S31508002590596821F003014A1B0F2AF2DD1C46D3F8BD
S315080025A00CC054F8088F591945F0010942F0010585
S315080025B0C3F804903046C8F80CC0CCF80880796196
S315080025C03961C1F80CE0C1F808E04D608A5000F0A6
S315080025D0BBFA63E77E214FF03F0C7BE72244E368B2
S315080025E05068A16840F00105CB6030469960556097
S315080025F000F0AAFA0834204603B0BDE8F08F21445B
S3150800260030464B6843F001034B6000F09DFA0834EE
S31508002610204603B0BDE8F08FBC68636823F0030961
S31508002620A94504D3C5EB09030F2B00F39180514B41
S31508002630514A19681368013305EB010A04EB090BC3
S3150800264000F061810AF5805A0AF10F0A2AF47F6AB6
S315080026502AF00F0A30465146019200F08BFAB0F183
S31508002660FF3F8046019A00F00081834500F2FA8018
S31508002670DFF810C1DCF80030C3455344CCF800300D
S3150800268000F04A8112683C4901321BBFCBEB080BAC
S315080026905B44C1F80080CCF8003018F0070300F05E
S315080026A01381C3F10802C3F5805390440833C2442A
S315080026B0CAF30B0ACAEB030A51463046CDF804C0E2
S315080026C000F058FA431CDDF804C000F03581C8EB69
S315080026D00002524442F00102DCF80030C7F80880D4
S315080026E05344BC42C8F80420CCF80030DFF894A064
S315080026F015D0B9F10F0F40F2EA806168A9F10C0212
S3150800270022F0070201F0010EA118052042EA0E0E7A
S315080027100F2AC4F804E04860886000F21181174A5D
S31508002720BC6811688B4288BF1360154A11688B42D2
S3150800273088BF1360626822F003029542C5EB020364
S3150800274001D80F2B04DC304600F0FEF90024A5E67C
S31508002750621943F0010345F0010565603046BA6029
S31508002760536000F0F1F90834204603B0BDE8F08F55
S315080027705C040020FC8A002068080020F88A0020F3
S31508002780F48A0020008B0020BCF1140F61D9BCF13B
S31508002790540F00F28F804FEA153C0CF16E0C4FEA8D
S315080027A04C0197E64B0A042B58D9142B00F2AE803D
S315080027B003F15B02500007EB8000DFF8BC818368F9
S315080027C0834200F08A805A6822F00302914202D2BC
S315080027D09B689842F7D1D9687A68E160A3608C60F3
S315080027E0DC60B7E6611942F0010745F0010565604E
S315080027F0304659611961C1F80CE0C1F808E04F602C
S315080028008A50083400F0A0F948E65A68A2E609F1A9
S31508002810010919F0030F04F108047FF4AEAE2DE0A8
S3150800282004F108036469A34208BF0CF1020C3FF4E3
S3150800283067AE23E619441C464868DB6854F8082F37
S3150800284040F001054D603046D3609A6000F07CF98F
S3150800285024E60CF15B0C4FEA4C013BE68A09383258
S315080028605000A8E7BC423FF403AFBC68626822F098
S31508002870030262E7D8F8008098457BD11CF0030F65
S31508002880A8F108030CF1FF3CF4D17B6823EA0003A6
S315080028907B60400098423FF6BFAE00283FF4BCAECE
S315080028A00342CC467FF465AE400003420CF1040CAB
S315080028B0FAD05EE6BCF5AA7F1AD84FEAD53C0CF1E9
S315080028C0770C4FEA4C0105E64FF48053EFE60123F7
S315080028D0C8F80430444600222FE791100120D8F8A2
S315080028E0042000FA01F10A43C8F80420194674E7DF
S315080028F040F254539C451BD84FEA954C0CF17C0C7E
S315080029004FEA4C01E6E50AF1100AA3E6542B1FD854
S315080029100A0B6E3250004EE7CBF30B0100297FF409
S31508002920B1AE0AEB0901BA6841F001015160F6E659
S31508002930FC214FF07E0CCDE501224FF0000ACBE6D4
S3150800294004F10801304602F07DFFDAF80030E6E6C9
S31508002950B3F5AA7F03D8CA0B773250002BE740F2AB
S315080029605452934203D88A0C7C32500023E7FC2049
S315080029707E2220E77B688CE75C040020844641EAD7
S31508002980000313F003036DD1403A41D351F8043BD9
S3150800299040F8043B51F8043B40F8043B51F8043B2B
S315080029A040F8043B51F8043B40F8043B51F8043B1B
S315080029B040F8043B51F8043B40F8043B51F8043B0B
S315080029C040F8043B51F8043B40F8043B51F8043BFB
S315080029D040F8043B51F8043B40F8043B51F8043BEB
S315080029E040F8043B51F8043B40F8043B51F8043BDB
S315080029F040F8043B51F8043B40F8043B51F8043BCB
S31508002A0040F8043B51F8043B40F8043B403ABDD239
S31508002A10303211D351F8043B40F8043B51F8043BDB
S31508002A2040F8043B51F8043B40F8043B51F8043B9A
S31508002A3040F8043B103AEDD20C3205D351F8043B6A
S31508002A4040F8043B043AF9D2043208D0D2071CBF36
S31508002A5011F8013B00F8013B01D30B88038060465F
S31508002A60704700BF082A13D38B078DD010F00303D5
S31508002A708AD0C3F10403D21ADB071CBF11F8013B45
S31508002A8000F8013B80D331F8023B20F8023B7BE794
S31508002A90043AD9D3013A11F8013B00F8013BF9D2BF
S31508002AA00B7803704B7843708B7883706046704759
S31508002AB0F0B4840743D0541E002A3ED0CDB2034654
S31508002AC003E0621E002C38D0144603F8015B9A070F
S31508002AD0F7D1032C2AD9CDB245EA05250F2C45EAAC
S31508002AE0054515D9A4F110073F0903F1100606EBB1
S31508002AF007161A46156055609560D5601032B242C1
S31508002B00F8D104F00F040137032C03EB07130DD992
S31508002B101E462246043A032A46F8045BFAD8221FC0
S31508002B2022F003020432134404F003042CB1C9B2A0
S31508002B301C4403F8011BA342FBD1F0BC70471446A2
S31508002B400346C6E7704700BF704700BF0FB400B51D
S31508002B50074A83B004AB106853F8042B81680193C5
S31508002B6000F0F2F903B05DF804EB04B0704700BF5B
S31508002B705804002038B5074C00230546084623604C
S31508002B80FDF794FE431C00D038BD2368002BFBD00C
S31508002B902B6038BD288B00201F2938B50C46054602
S31508002BA020D8D0F8DC229AB152F8213083B1012B13
S31508002BB00CD0591C06D00025204642F824509847C8
S31508002BC0284638BD16230360012038BD002038BDCD
S31508002BD0284600F029F8224601462846BDE838402E
S31508002BE000F00EB8162303604FF0FF3038BD00BF63
S31508002BF0024B01461868FFF7CFBF00BF58040020F4
S31508002C0038B5084C0023054608461146236004F0EB
S31508002C106DF8431C00D038BD2368002BFBD02B6011
S31508002C2038BD00BF288B002004F050B810B50C46FC
S31508002C30B1F90E1003F0B4FA002803DB236D034440
S31508002C40236510BDA38923F48053A38110BD00BF5B
S31508002C502DE9F0410C4689891D46CB0516460746DF
S31508002C6006D5B4F90E100022022302F0C7FEA18988
S31508002C7021F48051A1813846B4F90E1032462B460C
S31508002C80BDE8F04101F03CBC10B50C46B1F90E1098
S31508002C9002F0B4FEA389421C0EBF23F4805343F40A
S31508002CA080532065A38110BDB1F90E1001F09EBCBA
S31508002CB040EA010C1CF0070F23D1BDF1100DCDE938
S31508002CC00245CDE900676FF000064FF0000700BF28
S31508002CD0F0E80223F1E80245A24282FA46FCA7FA86
S31508002CE086FC08BFBCF1000F40F0D780AB4283FAE0
S31508002CF046FCA7FA86FC08BFBCF1000F40F0CA8064
S31508002D00E6E710F0030C21D020F0030050F8042B5E
S31508002D105FEACC7C08D00FD211F801CB5FFA92F3A8
S31508002D20B3EB0C0C10D17BB111F801CB5FFAA2F30F
S31508002D30B3EB0C0C08D13BB111F801CB5FFAB2F337
S31508002D40B3EB0C0C00D10BB960467047BDF1100D02
S31508002D50CDE90245CDE900676FF000064FF00007A0
S31508002D6011F0030C2DD110F0040F0DD050F8042BE0
S31508002D7051F8044BA24282FA46FCA7FA86FC08BF21
S31508002D80BCF1000F40F0898011F0040F9FD051F874
S31508002D90045B00BFF0E80223AA4282FA46FCA7FABF
S31508002DA086FC08BFBCF1000F71D1F1E80245A342C9
S31508002DB083FA46FCA7FA86FC08BFBCF1000F63D16C
S31508002DC0E8E721F00301BCF1020F1ED03BDA51F807
S31508002DD0045B00BF50F8043B4FEA152583FA46FC0E
S31508002DE0A7FA86FCB7EB0C2F03EA162208BFAA42FD
S31508002DF04DD151F8045BBCF1000F82EA03034FEA98
S31508002E00056208BF93423CD1E4E751F8045B00BF72
S31508002E1050F8043B4FEA154583FA46FCA7FA86FCA8
S31508002E20B7EB0C4F03EA164208BFAA422FD151F856
S31508002E30045BBCF1000F82EA03034FEA054208BFB0
S31508002E4093421ED1E4E751F8045B00BF50F8043BF7
S31508002E504FEA156583FA46FCA7FA86FCB7EB0C6FB2
S31508002E6003EA166208BFAA4211D151F8045BBCF105
S31508002E70000F82EA03034FEA052208BF934200D1F6
S31508002E80E4E719BA12BA0AE019BA22BA07E011BA7F
S31508002E902ABA04E019BA2ABA01E011BA22BA9CFA87
S31508002EA08CF0DDE90067DDE902451DF1100D38B14A
S31508002EB0B0FA80F0C0F1180021FA00F122FA00F207
S31508002EC00120914298BF8041704700BF20F003015E
S31508002ED010F00300C0F1000051F8043B00F1040CA7
S31508002EE04FEACC0C6FF000021CBF22FA0CF2134317
S31508002EF04FF0010C4CEA0C2C4CEA0C4CA3EB0C02E0
S31508002F0022EA030212EACC1204BF51F8043B043049
S31508002F10F4D013F0FF0F1FBF013013F47F4F0130B9
S31508002F2013F47F0F18BF0130704700BF30B4044C4C
S31508002F300D46134601462A46206830BC01F0E0BA21
S31508002F4058040020000000002DE9F04FC5B01C46CB
S31508002F5089460692099002F04DFD00681190FFF728
S31508002F60B5FF099D14900B941DB1AB6B002B00F0B7
S31508002F700B81B9F80C2093B299040AD4D9F86410D5
S31508002F8042F4005321F40051A9F80C30C9F8641032
S31508002F909BB21A0740F1C280D9F81020002A00F027
S31508002FA0BD8003F01A030A2B00F0C4809FED7A7BDC
S31508002FB08DED127B002334AC0D930494299328934A
S31508002FC0169315930C9327942646DDF818C09CF89B
S31508002FD00030002B00F0DC80252B00F0D9800CF1A6
S31508002FE0010202E0252B00F08B801446013223787B
S31508002FF0002BF7D10698251A7DB1289B299A0698A1
S31508003000306001332A44072B75602992289300F310
S31508003010A48008360C9929440C912378002B00F0DB
S31508003020A4800023651C94F801808DF87F304FF04A
S31508003030FF341A460A930593069507942B460133DF
S31508003040A8F12001582900F2FE83DFE811F03D02BD
S31508003050FC03FC030903FC03FC03FC03FC03FC035D
S31508003060FC0344023902FC0360003B03FC037B03B8
S31508003070820382038203820382038203820382031A
S315080030808203FC03FC03FC03FC03FC03FC03FC03B4
S31508003090FC03FC03FC035903A303FC03A303FC037F
S315080030A0FC03FC03FC039303FC03FC03DA03FC03A5
S315080030B0FC03FC03FC03FC03A902FC03FC03C90292
S315080030C0FC03FC03FC03FC03FC03FC03FC03FC03FA
S315080030D0FC03FC0310032203A303A303A303DF02D9
S315080030E02203FC03FC03E802FC03F402100222029A
S315080030F05102FC035A02FC03A900FC03FC038102EB
S315080031000699651A78E70A9C0B9164420A94059D0C
S3150800311045F00405059593F8008090E70998494617
S3150800312001F002FAA0B9B9F80C3003F01A030A2B19
S315080031307FF43CAFB9F90E30002BFFF637AF09988C
S31508003140069A4946234601F09FF945B0BDE8F08F37
S315080031504FF0FF3045B0BDE8F08F0998494627AAD9
S3150800316003F098F840B934AE54E7299B23B109987F
S31508003170494627AA03F08EF8B9F80C305B06E7D45F
S315080031800C9845B0BDE8F08F2846FFF7AFF8F0E693
S31508003190069C42E7AFF30080000000000000000034
S315080031A0059C0693A20640F106820B9DEB1D23F0B3
S315080031B0070303F1080CD3E90045CDF82CC0012319
S315080031C04FF0000A8DF87FA00799002905DBDDF886
S315080031D014C02CF0800CCDF814C054EA050040F059
S315080031E04B830799002940F04783002B40F0BD84A4
S315080031F0DDF814C01CF0010F00F0B78444AF30238B
S3150800320007F8413D049DEC1BDDF81CC0002564450C
S31508003210A8BFA446CDF820C01095BAF1000F02D079
S31508003220089D01350895059B13F002030E9302D0FD
S31508003230089D02350895DDF814C01CF0840CCDF8FD
S315080032403CC040F016830A9DDDF820C0CCEB050B88
S31508003250BBF1000F40F30D83BBF1100F2999289A93
S31508003260DFF828A527DD179710255746A246099C9B
S3150800327006E0ABF1100BBBF1100F06F1080617DDDF
S3150800328001321031072A2991289237607560F0DDDE
S315080032902046494627AA02F0FDFF00287FF46CAFB6
S315080032A0ABF1100BBBF1100F2999289A34AEE7DC65
S315080032B05446BA46179F01320BEB010C072ACDF884
S315080032C0A4C0289286E8000C00F39E849DF87FA08F
S315080032D00836BAF1000F0FD0289B01330CF1010C08
S315080032E00DF17F010122072BCDF8A4C0289386E8AB
S315080032F0060000F3208408360E9B73B1289B013321
S315080033000CF1020C20A90222072BCDF8A4C02893A1
S3150800331086E8060000F31C8408360F9D802D00F011
S315080033204C83079A151B002D3DDD102D289BDFF8D1
S3150800333060A42CDD51460794AA464FF0100B62464E
S31508003340099C0D4606E0AAF1100ABAF1100F06F11B
S31508003350080617DD01331032072B2992289386E8D1
S315080033602008F0DD2046494627AA02F093FF0028E8
S315080033707FF402AFAAF1100ABAF1100F299A289B16
S3150800338034AEE7DC9446079C2A46554692460133F6
S31508003390AC44072BCDF8A4C02893C6F800A07560E6
S315080033A000F3BD830836059DEB0500F1A682289B30
S315080033B037600133A444072BCDF8A4C07460289362
S315080033C000F397830836059C620740D50A9D08983E
S315080033D02C1A002C3BDD102C289BDFF8B0A322DD2D
S315080033E010256246DDF82480574604E0103C102C70
S315080033F006F1080615DD01331032072B29922893AA
S3150800340037607560F2DD4046494627AA02F042FF5A
S3150800341000287FF4B1AE103C102C299A289B34AEB4
S31508003420E9DC9446BA460133A444072BCDF8A4C078
S315080034302893C6F800A0746009DD0998494627AAAA
S3150800344002F028FF00287FF497AEDDF8A4C00C9C94
S3150800345008980A9DA842ACBF241864190C94BCF1BC
S31508003460000F40F052830023289334AEADE5DDF813
S3150800347014C006931CF0200300F0CE810B9CE31DBC
S3150800348023F0070303F108050B95D3E9004500234C
S3150800349096E60B9ADDF814C00693151D30234FF0F7
S315080034A078084CF0020CB7488DF880300B951468F4
S315080034B0CDF814C000258DF88180169002237FE68A
S315080034C093F800802B22BAE593F80080002A7FF44F
S315080034D0B6AD2022B3E50B9C0B9D24680A94002CFC
S315080034E005F10401FFF60FAE0B9193F80080A6E5EF
S315080034F0DDF814C04CF0200CCDF814C093F8008009
S315080035009DE50B9C069327684FF0000A8DF87FA06F
S31508003510251D002F00F07986079C002C3846C0F23E
S315080035202E865146224602F0EDFA002800F0B286B1
S31508003530079C0B95C01BA042B8BF044624EAE47555
S31508003540CDF81CA0CDF840A008959DF87FA064E6AC
S31508003550059D8C4C0693AF0616948DF87F2047D5AB
S31508003560DDF82CC00CF1070323F0070303F1080468
S315080035700B94D3E90045DDF814C01CF0010F00F0E8
S31508003580F88254EA050000F0F48230234CF0020C6D
S315080035908DF880308DF88180CDF814C002230FE6AF
S315080035A0DDF814C006934CF0100CCDF814C0059C39
S315080035B0A2063FF5FAAD059CE30600F13483DDF873
S315080035C014C01CF0400F00F02E83DDF82CC0BCF8A8
S315080035D000400CF1040C00250123CDF82CC0EFE5C2
S315080035E0059D694C0693AF068DF87F201694B7D4CF
S315080035F0059DED0640F1EF84DDF82CC0DCF80040AF
S315080036000CF1040CCDF82CC00025B4E7DDF814C085
S315080036104CF0400CCDF814C093F800800FE593F8F1
S315080036200080B8F16C0F194600F07B85059D45F0C2
S315080036301005059503E5DDF814C006931CF0200F68
S315080036408DF87F2000F0A7840B9C21680C9CE51759
S315080036502B460B9D224604350B95C1E90023B4E49D
S31508003660059D45F00105059593F80080E7E40B9A5A
S315080036700B9D069312688DF8A820002301240435B3
S315080036809A4608940B958DF87F30079310932AAFC6
S31508003690C9E5059C0693A3068DF87F203CD50B9DAE
S315080036A0E91D21F00701D1E9002308310B911446E1
S315080036B01D46002A73F10000C0F2D1839DF87FA051
S315080036C0012381E593F80080B8F12A0F03F1010080
S315080036D000F0B886A8F13001092998BF002300F246
S315080036E0298610F8018B03EB830301EB4303A8F14A
S315080036F030010929F5D943EAE373079303469FE4A2
S31508003700DDF814C006934CF0100CCDF814C0059CD7
S315080037108DF87F20A306C2D4DDF814C01CF0100F64
S3150800372040F0B382059C670640F1AF82DDF82CC0F5
S31508003730BCF900400CF1040CE51722462B46CDF8DF
S315080037402CC0B6E7059D45F08005059593F80080E1
S3150800375075E40024A8F130010A94204613F8018B79
S3150800376000EB800001EB4000A8F130010929F5D9EA
S315080037700A9065E4059D45F00805059593F80080CF
S315080037805DE400BFA87D0008947D0008747D0008EC
S31508003790C87D0008059C069325078DF87F2040F113
S315080037A00E840B9DEB1D23F0070393ED007B8DED37
S315080037B0127B03F1080CCDF82CC09DED120B02F01C
S315080037C003FD012840F05583DDE91201002200239C
S315080037D003F0C0FE002840F033859DF87FA0DDF891
S315080037E014C09F4F9F4B002503242CF0800C08948F
S315080037F00795CDF814C0B8F1470FD8BF1F461095E6
S315080038000BE5059D069345F010050595DDF814C0F2
S315080038101CF020037FF432AEDDF814C01CF0100251
S3150800382040F03F82DDF814C01CF0400300F03982F6
S31508003830DDF82CC0BCF800400CF1040C134600253A
S31508003840CDF82CC0BCE406938DF87F20B8F1000FA4
S315080038503FF48BAC00234FF0010C9A46CDF820C0FC
S315080038608DF8A8808DF87F300793109364462AAFA9
S31508003870D9E4DDF8A4C02CE5012B00F0E380022B87
S315080038800DF1CF0318D1DDF858C0194604F00F0022
S31508003890220942EA05720F462B091CF800103970F6
S315080038A052EA030014461D4607F1FF31EED1049D86
S315080038B0CDE91A23EC1BA7E4E00840EA457004F0BA
S315080038C00702E908303250EA010C1F461A7004460E
S315080038D00D4603F1FF33EFD1059CCDE91801E0074A
S315080038E0394640F1B880302A00F0B580049D1F465D
S315080038F03023EC1B01F8013C86E4B8F1650F40F370
S31508003900B780DDE9120100220023CDF80CC003F0D0
S3150800391017FEDDF80CC0002800F02E81289B524ABD
S31508003920326001330CF1010C0122072BCDF8A4C03B
S315080039302893726000F36F830836219B0D9CA3427F
S3150800394003DB059DEF077FF53EAD289B149D119C73
S3150800395034600133AC44072BCDF8A4C075602893B6
S3150800396000F3E88308360D9D6C1E002C7FF72BADFF
S31508003970102C289BDFF8F4A040F39C8110256246A2
S31508003980DDF82480574604E00836103C102C40F336
S315080039908F8101331032072B29922893376075607F
S315080039A0F2DD4046494627AA02F074FC00287FF457
S315080039B0E3AB299A289B34AEE7E70A980899451A93
S315080039C0002D7FF7AEAC102D289BDFF8A0A02CDDCC
S315080039D051460E94AA464FF0100B6246099C0D46B6
S315080039E006E0AAF1100ABAF1100F06F1080617DD6B
S315080039F001331032072B2992289386E82008F0DD38
S31508003A002046494627AA02F045FC00287FF4B4ABB5
S31508003A10AAF1100ABAF1100F299A289B34AEE7DCEE
S31508003A2094460E9C2A46554692460133AC44072BCB
S31508003A30CDF8A4C02893C6F800A0756000F30282EA
S31508003A4008366EE4002D08BF0A2C80F03F8144AF8B
S31508003A50303407F8414D049DEC1BFFF7D5BB00BF7A
S31508003A60887D0008847D0008C47D0008C87D00089C
S31508003A700D9C012C289C40F3A78101340CF101050B
S31508003A800123072C299528943760736000F3B781C2
S31508003A90083614981199316001340544072C299584
S31508003AA02894706000F3C2810836DDE9120100220D
S31508003AB0002303F045FD002840F0BD800D9A01342F
S31508003AC0531E01371D44072C2894299537607360C7
S31508003AD000F389810836DDF854C00134AC44159DDD
S31508003AE0CDF8A4C023AB072C289486E828007FF7D6
S31508003AF069AC0998494627AA02F0CCFB00287FF44E
S31508003B003BABDDF8A4C034AE5DE40998494627AA64
S31508003B1002F0C0FB00283FF4A6ACFFF72DBB0998BE
S31508003B20494627AA02F0B6FB00287FF425ABDDF844
S31508003B30A4C034AE37E40998494627AA02F0AAFB7E
S31508003B4000287FF419ABDDF8A4C034AEFFF7D4BB68
S31508003B500998494627AA02F09DFB00287FF40CAB7A
S31508003B60DDF8A4C034AEFFF7D8BB079C34AFFFF727
S31508003B704BBB0223FFF724BB219B002B40F3578244
S31508003B800D9C109DDDF83480AC42A8BF2C46002C55
S31508003B90B8440BDD289B37600133A444072BCDF8C6
S31508003BA0A4C07460289300F3FA820836109D24EAAC
S31508003BB0E4742C1B002C40F3B180102C289BDFF8F2
S31508003BC00CA740F31B8251461025BA466246DDF81B
S31508003BD024B00F4604E00836103C102C40F30A8245
S31508003BE001331032072B2992289337607560F2DD6E
S31508003BF05846494627AA02F04DFB00287FF4BCAA7E
S31508003C00299A289B34AEE7E70998494627AA02F07D
S31508003C1041FB00287FF4B0AA9DF87FA0DDF8A4C078
S31508003C2034AEFFF756BB0B9D2C6804350B95012364
S31508003C300025FFF7C5BA0D9B5F1E002F7FF74BAF18
S31508003C40102FDFF888A640F3E6804FF01008DDF85D
S31508003C5024B004E00836103F102F40F3DC8001340E
S31508003C601035072C29952894C6F800A0C6F80480B4
S31508003C70F0DD5846494627AA02F00CFB00287FF4D7
S31508003C807BAA299D289C34AEE5E70B9DDDF82CC060
S31508003C902C680CF1040CE517CDF82CC022462B46EF
S31508003CA007E50B9D2C6804350B950025FFF788BAA8
S31508003CB09446BA460133A444072BCDF8A4C02893EA
S31508003CC0C6F800A074607FF77DAB12E70DF1CF0B45
S31508003CD0204629460A22002303F08CFC30328BF852
S31508003CE00020204629460A22002303F083FC0446C6
S31508003CF00D4654EA050C5F460BF1FF3BE8D1049DDF
S31508003D00EC1BFFF781BA0998494627AA02F0C2FABE
S31508003D1000287FF431AADDF8A4C034AE109D219C9A
S31508003D202F440D9DAC4240DB059DE8073DD40D9818
S31508003D30C7EB0805041BAC42B8BF2546002D0BDDB2
S31508003D40289B37600133AC44072BCDF8A4C07560B7
S31508003D50289300F34B82083625EAE575641B002C88
S31508003D607FF731AB102C289BDFF860A5A2DD102564
S31508003D706246DDF82480574603E00836103C102CCE
S31508003D8096DD01331032072B299228933760756028
S31508003D90F3DD4046494627AA02F07CFA00287FF45C
S31508003DA0EBA9299A289B34AEE8E7289B119D356034
S31508003DB0149D75600133AC44072BCDF8A4C0289335
S31508003DC000F307820836B2E7059DE9073FF555AEC9
S31508003DD001340CF101050123072C29952894376035
S31508003DE073607FF777AE0998494627AA02F052FA18
S31508003DF000287FF4C1A9299D289C34AE6BE6099852
S31508003E00494627AA02F046FA00287FF4B5A9299D53
S31508003E10289C34AE3DE601343D44072C2995289468
S31508003E20C6F800A077607FF755AEDCE709984946E3
S31508003E3027AA02F02FFA00287FF49EA9299D289C1C
S31508003E4034AE32E60998494627AA02F023FA002832
S31508003E507FF492A9DDF8A4C034AEFFF762BA4FF03A
S31508003E602D0A644265EB45058DF87FA00123FFF70F
S31508003E70ABB99DED120B02F0A7F9002800F02381DB
S31508003E80079C013428F0200A00F06F82BAF1470F28
S31508003E9004D1079C002C08BF01240794DDE91223EE
S31508003EA0059D002B45F480750E95C0F255829DED53
S31508003EB0127B8DED1C7B4FF0000BB8F1660F00F0FE
S31508003EC0DA81B8F1460F00F0D681BAF1450F0CBF7A
S31508003ED0079C079D099808BF651C22AA25AB8DE893
S31508003EE00C009DED1C0B02212A4621AB00F028FC94
S31508003EF0B8F1670F074602D0B8F1470F05D1DDF8CC
S31508003F0014C01CF0010F00F03382BAF1460F07EB1C
S31508003F10050400F0CB81DDE91C010022002303F033
S31508003F200FFB002840F0A581259B9C4206D930212D
S31508003F305A1C25921970259B9C42F9D8DB1BBAF1AD
S31508003F40470F0D9300F08D81B8F1650F40F392820B
S31508003F50B8F1660F00F03C82219C10940D9C109DD0
S31508003F60AC4200F3EC81DDF814C01CF0010F40F000
S31508003F703C8225EAE5732C464FF06708BBF1000F33
S31508003F8040F064810E9D08930595CDF81CB09DF808
S31508003F907FA0FFF742B9DDF814C01CF0100F40F0FF
S31508003FA0AB80DDF814C01CF0400F00F03D810B9C7F
S31508003FB00C9D236804340B941D80FFF706B80B9CF0
S31508003FC0E31D23F0070393ED007B08338DED127B89
S31508003FD00B93FFF7F2BB059C640640F18680DDF87B
S31508003FE02CC0BCF800400CF1040C0025CDF82CC000
S31508003FF0FFF7C1BA94463A46574692460133A44457
S31508004000072BCDF8A4C02893C6F800A074603FF724
S315080040107AAE083682E60998494627AA02F03AF99E
S3150800402000287FF4A9A8DDF8A4C034AE85E4289A50
S31508004030A249316001320CF1010C0121072ACDF8A1
S31508004040A4C0289271605FDC08361C462CB90D9D09
S315080040501DB9059DED077FF5B6A9289B149A119DF4
S31508004060356001336244149D2992072B75602893A5
S3150800407000F3538108366442002C72DD102CDFF8F9
S315080040804CA240F39B8051461025BA46DDF82480A1
S315080040900F4604E00836103C102C40F38C800133A0
S315080040A01032072B2992289337607560F2DD404657
S315080040B0494627AA02F0EEF800287FF45DA8299A57
S315080040C0289B34AEE7E7059D7D4F7E4B9DF87FA084
S315080040D00790032425F08005089405951090B8F1FB
S315080040E0470FD8BF1F46FFF798B80B9D2C680435B5
S315080040F00B950025FFF73FBA0B9C0C9D23680434EB
S315080041000B941D60FEF761BF0998494627AA02F07D
S31508004110C1F800287FF430A8219CDDF8A4C034AE8D
S3150800412094E7059C91F8018044F020040133059436
S31508004130FEF785BF0998494627AA02F0ABF800287A
S315080041407FF41AA8DDF8A4C034AE0CE409984946F1
S3150800415027AA02F09FF800287FF40EA8299A289B20
S3150800416034AEDDF834C00D9C376001339444072B18
S31508004170CDF8A4C0289374607FF724A9B9E4CDF8D4
S315080041801CA0FEF7A3FE0B9520EAE07C079DCDF860
S3150800419020C0044610959DF87FA0FFF73EB8099801
S315080041A0494627AA02F076F800287EF4E5AFDDF83E
S315080041B0A4C034AEFAE4394657468A460133224447
S315080041C0072B29922893C6F800A07460BEDC08362F
S315080041D0C7E70998494627AA02F05CF800287EF442
S315080041E0CBAF219CDDF8A4C034AEA0E509984946BA
S315080041F027AA02F04FF800287EF4BEAF219C0D993D
S31508004200DDF8A4C00C1B34AEA6E5079C1097062C57
S3150800421028BF062424EAE47CBA4607970B95CDF80E
S3150800422020C0294FFEF7F9BFDDF82CC00C9CDCF83E
S3150800423000300CF1040CCDF82CC01C60FEF7C5BE8E
S315080042404FF02D0A8DF87FA0FFF7C9BA0E9D059588
S315080042504FF02D0A002508938DF87FA00795FEF7E5
S31508004260DFBF219BDC1C33DB079C9C4230DB1093B1
S3150800427074E6234662E622AA25AB8DE80C00099867
S31508004280079A9DED1C0B032121AB00F059FA079DF7
S3150800429007463AE624EAE47CCDF820C0079C0B954D
S315080042A0079010909DF87FA0FEF7B7BF3B78302B9C
S315080042B000F0A280219D2C442DE600BFC47D000895
S315080042C0907D00088C7D0008BC7D0008C87D00082C
S315080042D0A8F10208013B002B2193BABF5B422D22AD
S315080042E02B22092B8DF88C808DF88D2042DC3033FB
S315080042F030228DF88F308DF88E2024AB0D9D0D9CC5
S3150800430023AA9A1A012D1592144440F39180013478
S31508004310002524EAE473109530E60998494627AA49
S3150800432001F0B8FF00287EF427AF219C299A289B24
S3150800433034AEA0E6002403460794FEF781BE109C1F
S315080043400D9D002CD4BFC4F1020401242C4424EA98
S31508004350E4734FF0670811E6139912981C9001F15F
S3150800436000411D914FF02D0BA7E50625079595E50C
S31508004370259BE3E50DF19A00414DDA1785FB0351BC
S31508004380C2EBA10101EB81040246A3EB440303F14E
S315080043903000092910700B4602F1FF30ECDC01F100
S315080043A030030DF19B04D9B2844202F8011C63D98B
S315080043B00DF18D00134601E013F8011BA34200F826
S315080043C0011FF9D10DF5887CC2EB4C03F63B95E746
S315080043D0219D1095002D079C23DDDCB9059DE80776
S315080043E018D4109C24EAE473C8E5109D6C1C24EAD2
S315080043F0E4734FF06708C1E5DDE91C0100220023DC
S3150800440003F09EF800287FF455AFC5F10105219504
S315080044102C4480E5079D6C1C109D2C4424EAE4730B
S31508004420ACE514BB059DE9071FD401231C46A5E589
S31508004430DDF814C01CF001037FF469AF109324EA79
S31508004440E4739BE50B9DDDF82CC02D6893F801807D
S3150800445007950CF10401002D0B910346BEF6EFAD4E
S315080044604FF0FF340794FEF7EABD079DAC1C24EA1B
S31508004470E47383E5219B2DE70DF18E033EE700BF2C
S3150800448067666666AFF300802DE9F0430C46ADF229
S315080044906C4DB1F80C90E769496EB4F80E80199125
S315080044A01AAD4FF480664FF0000E079729F00209FF
S315080044B0676A00956946049502960596ADF80C90CC
S315080044C0ADF80E800997CDF818E00646FEF73CFDD4
S315080044D0051E07DB3046694601F050F9002818BF6B
S315080044E04FF0FF35BDF80C305B0603D5A38943F0C2
S315080044F04003A38128460DF26C4DBDE8F08300BF4A
S3150800450070B5084C06460025084611461A46256029
S31508004510FCF794F9431C00D070BD2368002BFBD030
S31508004520336070BD288B00202F4B1B6870B506467C
S315080045300C4613B19A6B002A36D0A589ABB2190777
S315080045400CD52269AAB113F001011ED063690021B6
S315080045505B42A361A160F2B1002070BDDA063BD5CB
S315080045605B0725D4226945F00803A3819BB2002A7C
S31508004570E9D103F42071B1F5007FE4D03046214635
S3150800458001F050FAA3892269DDE7980758BF6169E7
S31508004590A160002AE0D1A3891A06DDD543F04003BD
S315080045A0A3814FF0FF3070BD1846FDF79FFEC4E7A4
S315080045B0216B49B104F14003994203D0304601F01A
S315080045C041F9A5890023236325F0240500232269E0
S315080045D06360ADB22260C6E745F040050923336043
S315080045E04FF0FF30A58170BD5804002038B5074C40
S315080045F00023054608462360FCF74EF9431C00D005
S3150800460038BD2368002BFBD02B6038BD288B0020D3
S315080046102DE9F04F03690D699D4283B0834600F387
S315080046208B80013D01F1140400F1140A54F8252089
S315080046305AF825300132B3FBF2F8AA0091460092E7
S315080046405244A1440192B8F1000F3DD04FF0000E3C
S315080046507046224653468C4652F8046B1968B7B220
S31508004660360C07FB08EE06FB08F606EB1E461FFA95
S315080046708EF7C71BB0B217FA81F7C0EB114000EBF3
S315080046802740BFB247EA0047914543F8047B4FEA03
S3150800469020404FEA164EDFD2009A5AF80230614699
S315080046A093B9019A131F9A450CD252F8043C4BB998
S315080046B0A2F1080302E01A68043B1AB99A4505F103
S315080046C0FF35F8D3CBF81050584601F081FC002886
S315080046D02EDB08F101085346002254F8046B1868CB
S315080046E0B1B2521A360C12FA80F1C6EB104202EB3E
S315080046F0214289B241EA0241A14543F8041B4FEA27
S315080047002242EAD25AF825200AEB850382B91A1FF3
S3150800471092450BD253F8042C42B9083B02E01A68BA
S31508004720043B1AB99A4505F1FF35F8D3CBF8105072
S31508004730404603B0BDE8F08F002003B0BDE8F08F17
S315080047402DE9F04F9DB004460491016C269D069212
S3150800475009935BEC10AB49B1436C4B60012202FA3A
S3150800476003F38B6001F03CFA00232364BBF1000FCE
S31508004770D94635DB00232B60A54B1A4609EA030305
S31508004780934216D0002200235046594602F0D8FE1E
S3150800479056465F46804648B3099E01233360279EE6
S315080047A0002E00F0C9809B48306001381DB0BDE876
S315080047B0F08F099E42F20F733360BAF1000F00F0D2
S315080047C0A4809548279E002EF0D0C378002B00F0D1
S315080047D0B58000F10803279E33601DB0BDE8F08F51
S315080047E001232BF000492B60CB46C5E7204647EC52
S315080047F0106B1BA91AAA01F079FC5FEA19550C90EF
S3150800480040F08C801A9F1B9D6FF482633D449D4245
S31508004810C0F297821F3305F212425B1B09FA03F3B3
S315080048202AFA02F243EA020002F0ACFB0126013D35
S31508004830B846A1F1F87118960022784B02F064FA8E
S315080048406DA3D3E9002302F013FC6DA3D3E900237B
S3150800485002F05CFA064628460F4602F0A3FB6AA356
S31508004860D3E9002302F004FC02460B4630463946DB
S3150800487002F04CFA06460F4602F094FE39460890B6
S3150800488000223046002302F065FE002840F02A8206
S31508004890089E162E00F22382614B03EBC603D3E96A
S315080048A0000152465B4602F073FE002800F04E8275
S315080048B0013E089600261096C5EB0805013D0795AA
S315080048C000F12A8200260A96089E002EC0F2188257
S315080048D0DDF81CE00F96B6440026CDF81CE00E96CF
S315080048E0049E092E2CD8052EC4BF043E04960499AE
S315080048F0A1F10203CCBF00260126032B22D8DFE84C
S3150800490013F0AE03A302B703AB04464A424BC9F3FE
S31508004910130000280CBF1046184653E7CBF31303C1
S3150800492043F07F51CDF860805046A5F2FF3541F43B
S315080049304011DDF868807FE73B4837E7C31C4AE744
S3150800494000260496002565642946204601F022F9CA
S315080049504FF0FF3901260B9006952064CDF8449058
S315080049600D961B9B002BC0F2D180089E0E2E00F3DD
S31508004970CD802B4B03EBC60393ED007B069E002EE2
S315080049808DED047BC0F27783DDE904235946504652
S3150800499002F098FC02F006FE054602F003FBDDE98C
S315080049A0042302F065FB0B4602465946504602F0C0
S315080049B0ABF9DDF82CE005F13003B9F1010F064635
S315080049C00F468EF800300EF1010B61D00022174B0E
S315080049D002F04EFB0022002306460F4602F0B0FD09
S315080049E000287ED1DDF82C800B9B0694C844DDE9AF
S315080049F004AB03F1020926E061436F63A787D23F40
S31508004A00B3C8608B288AC63FFB799F501344D33FAF
S31508004A100000F07FC57D0008E47D00080000F83F2F
S31508004A20F87D0008D87D0008C47D000800002440F1
S31508004A3002F01EFB0022002306460F4602F080FD08
S31508004A40002840F0D38352465B463046394602F08A
S31508004A5039FC02F0A7FD054602F0A4FA52465B4669
S31508004A6002F006FB02460B463046394602F04CF980
S31508004A7005F1300EC14509F801EC4C4606460F46CD
S31508004A804FF00002A94B09F10109D1D1A346069CB2
S31508004A9032463B463046394602F038F906460F4656
S31508004AA03246DDE904013B4602F054FD40B9DDE932
S31508004AB0040132463B4602F043FD90B1EB0710D5A0
S31508004AC01BF8015C0B9A05E09A4200F0318413F852
S31508004AD0015C9B46392D0BF1FF33F5D06A1CD2B227
S31508004AE01A7020460C9901F07BF8089E731C099EE3
S31508004AF000228BF800203360279E002E00F01E83CC
S31508004B000B98C6F800B01DB0BDE8F08F0D9E002EBC
S31508004B1000F00781049E012E40F3D5820E9E09F10E
S31508004B20FF37BE42C0F29B83F71BB9F1000FC0F2F4
S31508004B3092840A9D4B460A9E1E440A96079E204664
S31508004B401E440121079601F0EFF8064665B107995C
S31508004B50002909DD0B460A9AAB42A8BF2B46D21A92
S31508004B60C91A0A92ED1A07910E9B002B1BDD0D99A7
S31508004B70002900F06A83002F11DD31463A462046A7
S31508004B8001F07AF9064631460C9A204601F0D6F825
S31508004B900C998046204601F023F8CDF830800E9B0C
S31508004BA0DA1B40F08A820121204601F0BDF80F99F0
S31508004BB00029804605DD01460F9A204601F05CF97A
S31508004BC08046049A012A40F3CB8200270F990029D0
S31508004BD040F0AA820120079B034413F01F0300F04C
S31508004BE0A780C3F12002042A40F3C9840A9ADDF893
S31508004BF01CE0C3F11C031A449E440A921D44CDF8D6
S31508004C001CE00A9B002B05DD0C991A46204601F08C
S31508004C1081F90C900799002905DD4146079A204637
S31508004C2001F078F98046109A002A40F06282B9F1BC
S31508004C30000F40F3B0820D9A002A40F089800D9D3E
S31508004C400C9FDDF82CB006E0394620460A220023E0
S31508004C5000F0D0FF074638464146FFF7D9FC30300A
S31508004C600BF805000135A945EEDCDDF82CB00C97EC
S31508004C708246B9F1010FACBFCB440BF1010B0025FD
S31508004C800C990122204601F045F941460C9001F0A5
S31508004C909FF9002840F311831BF8012C0B9905E0B6
S31508004CA0994200F09A8213F8012C9B46392A0BF197
S31508004CB0FF33F5D001321A704146204600F090FFC6
S31508004CC0002E3FF40EAF2DB1B54203D0294620463B
S31508004CD000F086FF3146204600F082FF01E70126F4
S31508004CE01096E9E5089802F05DF932463B4602F06F
S31508004CF027FC00287FF4CCAD089E013E0896C7E540
S31508004D000A9EDDF820E0CEEB06060A96CEF10006EE
S31508004D100E9600260F96E3E56E420A96002607963B
S31508004D20D2E50E9F0A9D0D9E10E700BF00002440A5
S31508004D301C230A99079A19441A440A911D44079292
S31508004D405FE74048401B0AFA00F06DE51090B3E5AE
S31508004D50002D05DD31462A46204601F0DBF80646D9
S31508004D60002F40F0EF8237460B9B0B9A4B440AF014
S31508004D7001010A930D91551CDDF830900AE000F008
S31508004D8039FF394606460A222046002300F032FF3C
S31508004D900746013541464846FFF73AFC3146834601
S31508004DA0484601F015F93A4606904146204601F074
S31508004DB033F9C26805F1FF3E03460BF1300ACDF818
S31508004DC01CE0002A40F0888119464846039301F002
S31508004DD0FFF8039B024619462046039200F000FF9F
S31508004DE0039A2AB9049919B90D9B002B00F0A783D9
S31508004DF0069B002BC0F2428205D1049919B90D9B76
S31508004E00002B00F03B82002A00F3B0820A9905F8CD
S31508004E1001AC8D42AB4600F0BA8249460A2200230D
S31508004E20204600F0E7FEBE428146314620464FF056
S31508004E300A024FF00003A2D100F0DCFE0646074640
S31508004E40A7E700BFEEFBFFFF00210D91069A089B1E
S31508004E501A4402F10109B9F1000F11924D4640F3C7
S31508004E6045810021172D61640AD9012204235B00BC
S31508004E7003F11400A842114602F10102F7D9616450
S31508004E80204600F087FE0E2D0B9020643FF669AD94
S31508004E90002E3FF466AD089E002ECDE914AB40F314
S31508004EA02082A84B06F00F0203EBC2033511D3E9A3
S31508004EB00067EB0640F1DB81A34B50465946D3E920
S31508004EC0082302F0FFF9CDE9120105F00F054FF0AE
S31508004ED003088DB1DFF870A230463946EE0705D5CE
S31508004EE0DAE9002302F0C4F808F101086D100AF1A6
S31508004EF0080AF3D106460F46DDE9120132463B465B
S31508004F0002F0E0F982468B46109E46B15046594655
S31508004F1000228E4B02F01EFB002840F0BD82404660
S31508004F2002F040F852465B4602F0A2F80022884B8F
S31508004F3001F0ECFE0646A1F15077B9F1000F00F03A
S31508004F40688108991991C8460D9A002A00F02882A6
S31508004F507C4B804903EBC80353E90223002002F087
S31508004F60B1F932463B4601F0CFFECDE9120159466A
S31508004F70504602F017FB054602F014F802460B46A7
S31508004F805046594601F0C0FE30350B9ECDE900016A
S31508004F90EDB23570DDE91201DDE9002306F1010BFA
S31508004FA002F0F6FA002840F0BF82DDE9002300206F
S31508004FB0664901F0A9FE02460B46DDE9120102F038
S31508004FC0E7FA002840F0B682B8F1010F40F3858170
S31508004FD0B044CDF85890A246C146DDE90067DDE940
S31508004FE012450DE00020594901F08EFE22462B4657
S31508004FF002F0B0FA002840F09B82CB4500F06A81A7
S31508005000204629460022544B02F032F80022524B21
S3150800501004460D463046394602F02AF80F4606463B
S3150800502002F0C0FA804601F0BDFF02460B46304644
S31508005030394601F069FE08F130085FFA88F8224619
S315080050402B460BF8018B06460F4602F083FA3246CA
S315080050503B460028C6D0199E0896544641E50022CC
S315080050600D92069B002B3DDD1D4611939946F8E6E9
S3150800507001230D93F5E7B9F1000F3FF785AC40F032
S31508005080E0800022354BDDE9040101F0F1FF5246CC
S315080050905B4602F073FAC8464E46002800F0918037
S315080050A0069BDDF82CB0DB4308934146204600F00A
S315080050B097FD002E7FF40EAE13E50C99204600F0FE
S315080050C0DBFE0C906FE5189E002E00F0CA8103F2F5
S315080050D033430E9F0A9D2EE50146204600F080FDCB
S315080050E0012285E601251195A946069500216164E8
S315080050F0C6E60C98414600F06BFF0028BFF697AD50
S31508005100DDF820E00C990EF1FF3E20460A22002326
S31508005110CDF820E000F06EFD0D990C90002940F0C6
S315080051202082DDF8449082E5D8F8103008EB830336
S31508005130186900F0ABFDC0F120004CE50B98FFF7AD
S3150800514035BB00BFF87D0008C07E00080000F03FB0
S3150800515000001C400000E03F00002440000014400E
S31508005160BAF1000F7FF431ADCBF31303002B40F0F7
S315080051707F812BF000473F0D3F05002F3FF426ADFA
S315080051800A9BDDF81CE001330EF1010E0A93CDF8F7
S315080051901CE001271AE5049A022A7FF74CADB9F1FB
S315080051A0000F7FF47DAF41464B460522204600F0AE
S315080051B021FD804641460C9800F00AFF00287FF73B
S315080051C06FAFDDF820E00B9931230EF1010ECDF813
S315080051D020E00B7001F1010B67E7089ADDF82CE077
S315080051E03123013208928EF8003065E5A346069C05
S315080051F077E4404601F0D6FE02460B46504659462D
S3150800520001F036FF00229E4B01F080FD0646A1F113
S3150800521050775046594600229A4B01F075FD3246A2
S315080052203B4682468B4602F0B3F9002840F0B4802C
S31508005230324607F100435046594602F08BF90028DA
S315080052404BD04FF0000846462AE70C990E9A20469E
S3150800525000F012FE0C90A6E401210D91F6E50E9ED3
S315080052600E97BB1B0F9E1E440F9600275DE49DED0F
S31508005270147B4FF002088DED127B2AE6002ACDF842
S315080052803090D94611DD0C990122204600F042FEE5
S3150800529041460C9000F09CFE002840F35B81BAF171
S315080052A0390F00F0238109F1310A3546079E86F841
S315080052B000A006F1010B3E46FEE403D11AF0010FE9
S315080052C07FF4EAAC5B469B46013B1BF8012C302A6F
S315080052D0F9D0F1E4DDF858905446DDE914ABFFF750
S315080052E040BB089E7542002D00F0C580664B05F050
S315080052F00F0203EBC203D3E90023DDE9140101F031
S31508005300B7FE2D1182468B4600F036815F4E4FF070
S315080053100208EA0705D5D6E9002301F0A9FE08F137
S3150800532001086D1006F10806F3D182468B46EBE5B7
S31508005330089E013608960B9E3022327031221A706A
S31508005340FFF7CFBB7168204600F024FC33699A1C2E
S315080053500546920006F10C010C30FDF70FFB2046BE
S315080053602946012200F0D6FD0746FDE4BAF1390FB9
S31508005370CDF8309000F0BA80DDF81CE00AF10103A0
S3150800538035468EF800300EF1010B3E4694E435465C
S31508005390CDF830903E4673E44FF00008464610E7D5
S315080053A0394908F1FF3E01EBCE0132463B46D1E9C9
S315080053B00001CDF848E001F05BFECDE9160159463B
S315080053C0504602F0EFF8054601F0ECFD02460B46A2
S315080053D05046594601F098FC0F460B993035B8F1FE
S315080053E0010F06460D7001F1010B21D00B994B1EDA
S315080053F00D4603EB080A304639460022244B01F0D5
S3150800540037FE0F46064602F0CDF8804601F0CAFD83
S3150800541008F1300802460B463046394601F074FC5E
S3150800542005F8018F5545E8D1129A06460F4693446A
S315080054300022184BDDE9160101F068FC32463B46AE
S3150800544002F088F800285BD0199E08961BF8015CC4
S315080054500B9AFFF73FBB0A9E0023C9EB0605FFF729
S315080054606ABB1A9B0E9F0A9DC3F13603FFF763BBFF
S315080054705746FFF7ABBBDDE914AB4FF0020843E52F
S3150800548000001C4000001440F87D0008C07E00089B
S31508005490000024400000E03FB9F1000F3FF4A9AE38
S315080054A0119E002E7FF719AF0022384B50465946F9
S315080054B001F0DEFD824608F101008B4601F072FD1F
S315080054C002460B465046594601F0D2FD0022304BA3
S315080054D001F01CFCDDF820E0DDF844800EF1FF3E0B
S315080054E00646CDF864E0A1F150772DE5079B0B99A8
S315080054F0392235461A703E4603F1010BFFF7D6BB33
S31508005500DDE916230020234901F0FEFB32463B461F
