:020000040800F2
:1000000000000220550200085302000851020008B7
:1000100051020008510200085102000800000000CF
:100020000000000000000000000000005302000873
:1000300053020008000000005302000853020008A9
:100040005102000851020008510200085102000844
:100050005102000851020008510200085102000834
:100060005102000851020008510200085102000824
:100070005102000851020008510200085102000814
:100080005102000851020008510200085102000804
:1000900051020008510200085102000851020008F4
:1000A00051020008510200085102000851020008E4
:1000B00051020008510200085102000851020008D4
:1000C00051020008510200085102000851020008C4
:1000D00051020008510200085102000851020008B4
:1000E00051020008510200085102000851020008A4
:1000F0005102000851020008510200085102000894
:100100005102000851020008510200085102000883
:100110005102000851020008510200085102000873
:100120005102000851020008510200085102000863
:100130005102000851020008510200085102000853
:100140005102000851020008510200085102000843
:100150005102000851020008510200085102000833
:100160005102000851020008510200085102000823
:100170005102000851020008510200085102000813
:100180005102000851020008510200085102000803
:1001900051020008510200085102000851020008F3
:1001A00051020008510200085102000808B540F24F
:1001B000036000F03FF80848012100224FF480530B
:1001C00000F016F804484FF4805100F009F8034B92
:1001D00000BF013BFCD1F5E7000C024040420F009C
:1001E000436921EA03020B4042EA034383617047FB
:1001F0002DE9F0410668C568002443FA04F7FF07BB
:1002000011D567004FF0030C0CFA07FC6FEA0C0CD9
:1002100001FA07F80CEA06060CEA050502FA07F7E8
:1002200046EA08063D430134102CE6D10660C5605D
:10023000BDE8F081430903F1804303F50E3300F07C
:100240001F001A68012101FA00F01043186070477E
:10025000FEE770470022184918485318834204D219
:10026000174BD35853500432F5E7164A934203D242
:1002700000221A600433F8E7134B144C1A6842F456
:1002800070021A60124B9C4203D254F8043B984708
:10029000F8E7104C104B9C4203D254F8043B9847AB
:1002A000F8E7FFF783FF0D4C0D4B9C4203D254F847
:1002B000043B9847F8E700BF000000200000002042
:1002C000E40200080000002088ED00E0E4020008DD
:1002D000E4020008E4020008E4020008E402000866
:0402E000E40200082C
:040000050800025598
:00000001FF
